{
  "contractName": "Vacxpass",
  "abi": [
    {
      "constant": true,
      "inputs": [
        {
          "name": "",
          "type": "uint256"
        }
      ],
      "name": "vaccinetasks",
      "outputs": [
        {
          "name": "vaccineId",
          "type": "string"
        },
        {
          "name": "vaccineDate",
          "type": "string"
        },
        {
          "name": "batchNumber",
          "type": "string"
        },
        {
          "name": "completed",
          "type": "bool"
        },
        {
          "name": "dateIssue",
          "type": "string"
        }
      ],
      "payable": false,
      "stateMutability": "view",
      "type": "function",
      "signature": "0x7de7a1f0"
    },
    {
      "constant": true,
      "inputs": [],
      "name": "taskcount",
      "outputs": [
        {
          "name": "",
          "type": "uint256"
        }
      ],
      "payable": false,
      "stateMutability": "view",
      "type": "function",
      "signature": "0x8bd48089"
    },
    {
      "constant": true,
      "inputs": [
        {
          "name": "",
          "type": "uint256"
        }
      ],
      "name": "tasks",
      "outputs": [
        {
          "name": "id",
          "type": "uint256"
        },
        {
          "name": "firstName",
          "type": "string"
        },
        {
          "name": "lastName",
          "type": "string"
        },
        {
          "name": "gender",
          "type": "string"
        },
        {
          "name": "birthdate",
          "type": "string"
        },
        {
          "name": "nic",
          "type": "string"
        },
        {
          "name": "home",
          "type": "string"
        }
      ],
      "payable": false,
      "stateMutability": "view",
      "type": "function",
      "signature": "0x8d977672"
    },
    {
      "constant": true,
      "inputs": [
        {
          "name": "",
          "type": "uint256"
        }
      ],
      "name": "accesscode",
      "outputs": [
        {
          "name": "usercode",
          "type": "string"
        }
      ],
      "payable": false,
      "stateMutability": "view",
      "type": "function",
      "signature": "0xfa17447a"
    },
    {
      "inputs": [],
      "payable": false,
      "stateMutability": "nonpayable",
      "type": "constructor",
      "signature": "constructor"
    },
    {
      "anonymous": false,
      "inputs": [
        {
          "indexed": false,
          "name": "id",
          "type": "uint256"
        },
        {
          "indexed": false,
          "name": "firstName",
          "type": "string"
        },
        {
          "indexed": false,
          "name": "lastName",
          "type": "string"
        },
        {
          "indexed": false,
          "name": "gender",
          "type": "string"
        },
        {
          "indexed": false,
          "name": "birthdate",
          "type": "string"
        },
        {
          "indexed": false,
          "name": "nic",
          "type": "string"
        },
        {
          "indexed": false,
          "name": "home",
          "type": "string"
        }
      ],
      "name": "userTaskCreated",
      "type": "event",
      "signature": "0x6b37fff84120be1ba2e6b5cb7cf887c97392791e40adeecf447e1610babfab2c"
    },
    {
      "anonymous": false,
      "inputs": [
        {
          "indexed": false,
          "name": "vaccineId",
          "type": "string"
        },
        {
          "indexed": false,
          "name": "vaccineDate",
          "type": "string"
        },
        {
          "indexed": false,
          "name": "batchNumber",
          "type": "string"
        },
        {
          "indexed": false,
          "name": "completed",
          "type": "bool"
        },
        {
          "indexed": false,
          "name": "dateIssue",
          "type": "string"
        }
      ],
      "name": "vaccineTaskCreated",
      "type": "event",
      "signature": "0x2db365123191cbd04c1ba933df65b8ff56a6f81c78cdb30df361d639b7baae0e"
    },
    {
      "anonymous": false,
      "inputs": [
        {
          "indexed": false,
          "name": "id",
          "type": "uint256"
        },
        {
          "indexed": false,
          "name": "completed",
          "type": "bool"
        }
      ],
      "name": "TaskCompleted",
      "type": "event",
      "signature": "0xe21fa966ca5cd02748c0752352d18c48165e61cb55b4c29cccf924b5a95fcff1"
    },
    {
      "anonymous": false,
      "inputs": [
        {
          "indexed": false,
          "name": "usercode",
          "type": "string"
        }
      ],
      "name": "storecode",
      "type": "event",
      "signature": "0xbb4a20bb83b7867c5dcb4633ef7884be2fa5afc0aba2ebd76a9d17c5587f58fc"
    },
    {
      "constant": false,
      "inputs": [
        {
          "name": "firstName",
          "type": "string"
        },
        {
          "name": "lastName",
          "type": "string"
        },
        {
          "name": "gender",
          "type": "string"
        },
        {
          "name": "birthdate",
          "type": "string"
        },
        {
          "name": "nic",
          "type": "string"
        },
        {
          "name": "home",
          "type": "string"
        },
        {
          "name": "vaccineId",
          "type": "string"
        },
        {
          "name": "vaccineDate",
          "type": "string"
        },
        {
          "name": "batchNumber",
          "type": "string"
        },
        {
          "name": "dateIssue",
          "type": "string"
        }
      ],
      "name": "createTask",
      "outputs": [],
      "payable": false,
      "stateMutability": "nonpayable",
      "type": "function",
      "signature": "0xd4377ef7"
    },
    {
      "constant": false,
      "inputs": [
        {
          "name": "_id",
          "type": "uint256"
        }
      ],
      "name": "toggleCompleted",
      "outputs": [],
      "payable": false,
      "stateMutability": "nonpayable",
      "type": "function",
      "signature": "0x455f5024"
    },
    {
      "constant": false,
      "inputs": [
        {
          "name": "_code",
          "type": "string"
        }
      ],
      "name": "setCode",
      "outputs": [],
      "payable": false,
      "stateMutability": "nonpayable",
      "type": "function",
      "signature": "0xe403f1a7"
    }
  ],
  "bytecode": "0x6080604052600080553480156200001557600080fd5b50604080518082018252600e81527f757365722066697273744e616d6500000000000000000000000000000000000060208083019190915282518084018452600d81527f75736572204c6173744e616d65000000000000000000000000000000000000008183015283518085018552600b81527f757365722067656e6465720000000000000000000000000000000000000000008184015284518086018652600a8082527f78782d78782d787878780000000000000000000000000000000000000000000082860181905287518089018952600881527f75736572204e4943000000000000000000000000000000000000000000000000818801528851808a018a52600c8082527f7573657220616464726573730000000000000000000000000000000000000000828a01528a51808c018c52600181527f3000000000000000000000000000000000000000000000000000000000000000818b01528b51808d018d52868152808b018690528c51808e018e529283527f6261746368204e756d6265720000000000000000000000000000000000000000838c01528c51808e01909d52958c52988b0193909352620001e39996979596949591949093919290640100000000620001e9810204565b62000918565b600080815480929190600101919050555060e06040519081016040528060005481526020018b81526020018a81526020018981526020018881526020018781526020018681525060016000805481526020019081526020016000206000820151816000015560208201518160010190805190602001906200026c92919062000873565b50604082015180516200028a91600284019160209091019062000873565b5060608201518051620002a891600384019160209091019062000873565b5060808201518051620002c691600484019160209091019062000873565b5060a08201518051620002e491600584019160209091019062000873565b5060c082015180516200030291600684019160209091019062000873565b50506040805160a081018252868152602080820187905281830186905260006060830181905260808301869052805481526002825292909220815180519294509092620003559284929091019062000873565b50602082810151805162000370926001850192019062000873565b50604082015180516200038e91600284019160209091019062000873565b50606082015160038201805460ff191691151591909117905560808201518051620003c491600484019160209091019062000873565b509050507f6b37fff84120be1ba2e6b5cb7cf887c97392791e40adeecf447e1610babfab2c6000548b8b8b8b8b8b6040518088815260200180602001806020018060200180602001806020018060200187810387528d818151815260200191508051906020019080838360005b838110156200044b57818101518382015260200162000431565b50505050905090810190601f168015620004795780820380516001836020036101000a031916815260200191505b5087810386528c5181528c516020918201918e019080838360005b83811015620004ae57818101518382015260200162000494565b50505050905090810190601f168015620004dc5780820380516001836020036101000a031916815260200191505b5087810385528b5181528b516020918201918d019080838360005b8381101562000511578181015183820152602001620004f7565b50505050905090810190601f1680156200053f5780820380516001836020036101000a031916815260200191505b5087810384528a5181528a516020918201918c019080838360005b83811015620005745781810151838201526020016200055a565b50505050905090810190601f168015620005a25780820380516001836020036101000a031916815260200191505b5087810383528951815289516020918201918b019080838360005b83811015620005d7578181015183820152602001620005bd565b50505050905090810190601f168015620006055780820380516001836020036101000a031916815260200191505b5087810382528851815288516020918201918a019080838360005b838110156200063a57818101518382015260200162000620565b50505050905090810190601f168015620006685780820380516001836020036101000a031916815260200191505b509d505050505050505050505050505060405180910390a17f2db365123191cbd04c1ba933df65b8ff56a6f81c78cdb30df361d639b7baae0e84848460008560405180806020018060200180602001861515151581526020018060200185810385528a818151815260200191508051906020019080838360005b83811015620006fc578181015183820152602001620006e2565b50505050905090810190601f1680156200072a5780820380516001836020036101000a031916815260200191505b5085810384528951815289516020918201918b019080838360005b838110156200075f57818101518382015260200162000745565b50505050905090810190601f1680156200078d5780820380516001836020036101000a031916815260200191505b5085810383528851815288516020918201918a019080838360005b83811015620007c2578181015183820152602001620007a8565b50505050905090810190601f168015620007f05780820380516001836020036101000a031916815260200191505b50858103825286518152865160209182019188019080838360005b83811015620008255781810151838201526020016200080b565b50505050905090810190601f168015620008535780820380516001836020036101000a031916815260200191505b50995050505050505050505060405180910390a150505050505050505050565b828054600181600116156101000203166002900490600052602060002090601f016020900481019282601f10620008b657805160ff1916838001178555620008e6565b82800160010185558215620008e6579182015b82811115620008e6578251825591602001919060010190620008c9565b50620008f4929150620008f8565b5090565b6200091591905b80821115620008f45760008155600101620008ff565b90565b611e3280620009286000396000f3fe6080604052600436106100825763ffffffff7c0100000000000000000000000000000000000000000000000000000000600035041663455f502481146100875780637de7a1f0146100b35780638bd48089146102925780638d977672146102b9578063d4377ef714610560578063e403f1a714610ad3578063fa17447a14610b86575b600080fd5b34801561009357600080fd5b506100b1600480360360208110156100aa57600080fd5b5035610c25565b005b3480156100bf57600080fd5b506100dd600480360360208110156100d657600080fd5b5035610f8e565b60405180806020018060200180602001861515151581526020018060200185810385528a818151815260200191508051906020019080838360005b83811015610130578181015183820152602001610118565b50505050905090810190601f16801561015d5780820380516001836020036101000a031916815260200191505b5085810384528951815289516020918201918b019080838360005b83811015610190578181015183820152602001610178565b50505050905090810190601f1680156101bd5780820380516001836020036101000a031916815260200191505b5085810383528851815288516020918201918a019080838360005b838110156101f05781810151838201526020016101d8565b50505050905090810190601f16801561021d5780820380516001836020036101000a031916815260200191505b50858103825286518152865160209182019188019080838360005b83811015610250578181015183820152602001610238565b50505050905090810190601f16801561027d5780820380516001836020036101000a031916815260200191505b50995050505050505050505060405180910390f35b34801561029e57600080fd5b506102a76111f4565b60408051918252519081900360200190f35b3480156102c557600080fd5b506102e3600480360360208110156102dc57600080fd5b50356111fa565b6040518088815260200180602001806020018060200180602001806020018060200187810387528d818151815260200191508051906020019080838360005b8381101561033a578181015183820152602001610322565b50505050905090810190601f1680156103675780820380516001836020036101000a031916815260200191505b5087810386528c5181528c516020918201918e019080838360005b8381101561039a578181015183820152602001610382565b50505050905090810190601f1680156103c75780820380516001836020036101000a031916815260200191505b5087810385528b5181528b516020918201918d019080838360005b838110156103fa5781810151838201526020016103e2565b50505050905090810190601f1680156104275780820380516001836020036101000a031916815260200191505b5087810384528a5181528a516020918201918c019080838360005b8381101561045a578181015183820152602001610442565b50505050905090810190601f1680156104875780820380516001836020036101000a031916815260200191505b5087810383528951815289516020918201918b019080838360005b838110156104ba5781810151838201526020016104a2565b50505050905090810190601f1680156104e75780820380516001836020036101000a031916815260200191505b5087810382528851815288516020918201918a019080838360005b8381101561051a578181015183820152602001610502565b50505050905090810190601f1680156105475780820380516001836020036101000a031916815260200191505b509d505050505050505050505050505060405180910390f35b34801561056c57600080fd5b506100b1600480360361014081101561058457600080fd5b81019060208101813564010000000081111561059f57600080fd5b8201836020820111156105b157600080fd5b803590602001918460018302840111640100000000831117156105d357600080fd5b91908080601f016020809104026020016040519081016040528093929190818152602001838380828437600092019190915250929594936020810193503591505064010000000081111561062657600080fd5b82018360208201111561063857600080fd5b8035906020019184600183028401116401000000008311171561065a57600080fd5b91908080601f01602080910402602001604051908101604052809392919081815260200183838082843760009201919091525092959493602081019350359150506401000000008111156106ad57600080fd5b8201836020820111156106bf57600080fd5b803590602001918460018302840111640100000000831117156106e157600080fd5b91908080601f016020809104026020016040519081016040528093929190818152602001838380828437600092019190915250929594936020810193503591505064010000000081111561073457600080fd5b82018360208201111561074657600080fd5b8035906020019184600183028401116401000000008311171561076857600080fd5b91908080601f01602080910402602001604051908101604052809392919081815260200183838082843760009201919091525092959493602081019350359150506401000000008111156107bb57600080fd5b8201836020820111156107cd57600080fd5b803590602001918460018302840111640100000000831117156107ef57600080fd5b91908080601f016020809104026020016040519081016040528093929190818152602001838380828437600092019190915250929594936020810193503591505064010000000081111561084257600080fd5b82018360208201111561085457600080fd5b8035906020019184600183028401116401000000008311171561087657600080fd5b91908080601f01602080910402602001604051908101604052809392919081815260200183838082843760009201919091525092959493602081019350359150506401000000008111156108c957600080fd5b8201836020820111156108db57600080fd5b803590602001918460018302840111640100000000831117156108fd57600080fd5b91908080601f016020809104026020016040519081016040528093929190818152602001838380828437600092019190915250929594936020810193503591505064010000000081111561095057600080fd5b82018360208201111561096257600080fd5b8035906020019184600183028401116401000000008311171561098457600080fd5b91908080601f01602080910402602001604051908101604052809392919081815260200183838082843760009201919091525092959493602081019350359150506401000000008111156109d757600080fd5b8201836020820111156109e957600080fd5b80359060200191846001830284011164010000000083111715610a0b57600080fd5b91908080601f0160208091040260200160405190810160405280939291908181526020018383808284376000920191909152509295949360208101935035915050640100000000811115610a5e57600080fd5b820183602082011115610a7057600080fd5b80359060200191846001830284011164010000000083111715610a9257600080fd5b91908080601f016020809104026020016040519081016040528093929190818152602001838380828437600092019190915250929550611572945050505050565b348015610adf57600080fd5b506100b160048036036020811015610af657600080fd5b810190602081018135640100000000811115610b1157600080fd5b820183602082011115610b2357600080fd5b80359060200191846001830284011164010000000083111715610b4557600080fd5b91908080601f016020809104026020016040519081016040528093929190818152602001838380828437600092019190915250929550611bca945050505050565b348015610b9257600080fd5b50610bb060048036036020811015610ba957600080fd5b5035611c98565b6040805160208082528351818301528351919283929083019185019080838360005b83811015610bea578181015183820152602001610bd2565b50505050905090810190601f168015610c175780820380516001836020036101000a031916815260200191505b509250505060405180910390f35b610c2d611d39565b6000828152600260208181526040928390208351815460c0601f60001961010060018516150201909216959095049081018490049093028101840190945260a08401828152909284928491840182828015610cc95780601f10610c9e57610100808354040283529160200191610cc9565b820191906000526020600020905b815481529060010190602001808311610cac57829003601f168201915b50505050508152602001600182018054600181600116156101000203166002900480601f016020809104026020016040519081016040528092919081815260200182805460018160011615610100020316600290048015610d6b5780601f10610d4057610100808354040283529160200191610d6b565b820191906000526020600020905b815481529060010190602001808311610d4e57829003601f168201915b5050509183525050600282810180546040805160206001841615610100026000190190931694909404601f81018390048302850183019091528084529381019390830182828015610dfd5780601f10610dd257610100808354040283529160200191610dfd565b820191906000526020600020905b815481529060010190602001808311610de057829003601f168201915b5050509183525050600382015460ff16151560208083019190915260048301805460408051601f60026000196001861615610100020190941693909304928301859004850281018501825282815294019392830182828015610ea05780601f10610e7557610100808354040283529160200191610ea0565b820191906000526020600020905b815481529060010190602001808311610e8357829003601f168201915b5050509190925250505060608101805115905260008381526002602090815260409091208251805193945084939192610ede92849290910190611d6b565b506020828101518051610ef79260018501920190611d6b565b5060408201518051610f13916002840191602090910190611d6b565b50606082015160038201805460ff191691151591909117905560808201518051610f47916004840191602090910190611d6b565b505050606081015160408051848152911515602083015280517fe21fa966ca5cd02748c0752352d18c48165e61cb55b4c29cccf924b5a95fcff19281900390910190a15050565b600260208181526000928352604092839020805484516001821615610100026000190190911693909304601f810183900483028401830190945283835292839183018282801561101f5780601f10610ff45761010080835404028352916020019161101f565b820191906000526020600020905b81548152906001019060200180831161100257829003601f168201915b505050505090806001018054600181600116156101000203166002900480601f0160208091040260200160405190810160405280929190818152602001828054600181600116156101000203166002900480156110bd5780601f10611092576101008083540402835291602001916110bd565b820191906000526020600020905b8154815290600101906020018083116110a057829003601f168201915b50505060028085018054604080516020601f600019610100600187161502019094169590950492830185900485028101850190915281815295969594509092509083018282801561114f5780601f106111245761010080835404028352916020019161114f565b820191906000526020600020905b81548152906001019060200180831161113257829003601f168201915b50505050600383015460048401805460408051602060026101006001861615026000190190941693909304601f8101849004840282018401909252818152959660ff90941695939450908301828280156111ea5780601f106111bf576101008083540402835291602001916111ea565b820191906000526020600020905b8154815290600101906020018083116111cd57829003601f168201915b5050505050905085565b60005481565b600160208181526000928352604092839020805481840180548651600296821615610100026000190190911695909504601f810185900485028601850190965285855290949193929091908301828280156112965780601f1061126b57610100808354040283529160200191611296565b820191906000526020600020905b81548152906001019060200180831161127957829003601f168201915b50505060028085018054604080516020601f60001961010060018716150201909416959095049283018590048502810185019091528181529596959450909250908301828280156113285780601f106112fd57610100808354040283529160200191611328565b820191906000526020600020905b81548152906001019060200180831161130b57829003601f168201915b5050505060038301805460408051602060026001851615610100026000190190941693909304601f81018490048402820184019092528181529495949350908301828280156113b85780601f1061138d576101008083540402835291602001916113b8565b820191906000526020600020905b81548152906001019060200180831161139b57829003601f168201915b5050505060048301805460408051602060026001851615610100026000190190941693909304601f81018490048402820184019092528181529495949350908301828280156114485780601f1061141d57610100808354040283529160200191611448565b820191906000526020600020905b81548152906001019060200180831161142b57829003601f168201915b5050505060058301805460408051602060026001851615610100026000190190941693909304601f81018490048402820184019092528181529495949350908301828280156114d85780601f106114ad576101008083540402835291602001916114d8565b820191906000526020600020905b8154815290600101906020018083116114bb57829003601f168201915b5050505060068301805460408051602060026001851615610100026000190190941693909304601f81018490048402820184019092528181529495949350908301828280156115685780601f1061153d57610100808354040283529160200191611568565b820191906000526020600020905b81548152906001019060200180831161154b57829003601f168201915b5050505050905087565b600080815480929190600101919050555060e06040519081016040528060005481526020018b81526020018a81526020018981526020018881526020018781526020018681525060016000805481526020019081526020016000206000820151816000015560208201518160010190805190602001906115f3929190611d6b565b506040820151805161160f916002840191602090910190611d6b565b506060820151805161162b916003840191602090910190611d6b565b5060808201518051611647916004840191602090910190611d6b565b5060a08201518051611663916005840191602090910190611d6b565b5060c0820151805161167f916006840191602090910190611d6b565b50506040805160a0810182528681526020808201879052818301869052600060608301819052608083018690528054815260028252929092208151805192945090926116d092849290910190611d6b565b5060208281015180516116e99260018501920190611d6b565b5060408201518051611705916002840191602090910190611d6b565b50606082015160038201805460ff191691151591909117905560808201518051611739916004840191602090910190611d6b565b509050507f6b37fff84120be1ba2e6b5cb7cf887c97392791e40adeecf447e1610babfab2c6000548b8b8b8b8b8b6040518088815260200180602001806020018060200180602001806020018060200187810387528d818151815260200191508051906020019080838360005b838110156117be5781810151838201526020016117a6565b50505050905090810190601f1680156117eb5780820380516001836020036101000a031916815260200191505b5087810386528c5181528c516020918201918e019080838360005b8381101561181e578181015183820152602001611806565b50505050905090810190601f16801561184b5780820380516001836020036101000a031916815260200191505b5087810385528b5181528b516020918201918d019080838360005b8381101561187e578181015183820152602001611866565b50505050905090810190601f1680156118ab5780820380516001836020036101000a031916815260200191505b5087810384528a5181528a516020918201918c019080838360005b838110156118de5781810151838201526020016118c6565b50505050905090810190601f16801561190b5780820380516001836020036101000a031916815260200191505b5087810383528951815289516020918201918b019080838360005b8381101561193e578181015183820152602001611926565b50505050905090810190601f16801561196b5780820380516001836020036101000a031916815260200191505b5087810382528851815288516020918201918a019080838360005b8381101561199e578181015183820152602001611986565b50505050905090810190601f1680156119cb5780820380516001836020036101000a031916815260200191505b509d505050505050505050505050505060405180910390a17f2db365123191cbd04c1ba933df65b8ff56a6f81c78cdb30df361d639b7baae0e84848460008560405180806020018060200180602001861515151581526020018060200185810385528a818151815260200191508051906020019080838360005b83811015611a5d578181015183820152602001611a45565b50505050905090810190601f168015611a8a5780820380516001836020036101000a031916815260200191505b5085810384528951815289516020918201918b019080838360005b83811015611abd578181015183820152602001611aa5565b50505050905090810190601f168015611aea5780820380516001836020036101000a031916815260200191505b5085810383528851815288516020918201918a019080838360005b83811015611b1d578181015183820152602001611b05565b50505050905090810190601f168015611b4a5780820380516001836020036101000a031916815260200191505b50858103825286518152865160209182019188019080838360005b83811015611b7d578181015183820152602001611b65565b50505050905090810190601f168015611baa5780820380516001836020036101000a031916815260200191505b50995050505050505050505060405180910390a150505050505050505050565b604080516020818101835283825260008054815260038252929092208151805192939192611bfb9284920190611d6b565b505060408051602080825284518183015284517fbb4a20bb83b7867c5dcb4633ef7884be2fa5afc0aba2ebd76a9d17c5587f58fc945085938392908301919085019080838360005b83811015611c5b578181015183820152602001611c43565b50505050905090810190601f168015611c885780820380516001836020036101000a031916815260200191505b509250505060405180910390a150565b60036020908152600091825260409182902080548351601f60026000196101006001861615020190931692909204918201849004840281018401909452808452909291839190830182828015611d2f5780601f10611d0457610100808354040283529160200191611d2f565b820191906000526020600020905b815481529060010190602001808311611d1257829003601f168201915b5050505050905081565b60a060405190810160405280606081526020016060815260200160608152602001600015158152602001606081525090565b828054600181600116156101000203166002900490600052602060002090601f016020900481019282601f10611dac57805160ff1916838001178555611dd9565b82800160010185558215611dd9579182015b82811115611dd9578251825591602001919060010190611dbe565b50611de5929150611de9565b5090565b611e0391905b80821115611de55760008155600101611def565b9056fea165627a7a72305820c1968f90df252a772f22835e9f961a0743f22f7fee1f0352591116a788e762060029",
  "source": "pragma solidity ^0.5.0;\r\n\r\ncontract Vacxpass{\r\n    uint public taskcount=0;\r\n\r\n    struct Task{\r\n        uint id;\r\n        string firstName;\r\n        string lastName;\r\n        string gender;\r\n        string birthdate;\r\n        string nic;\r\n        string home;\r\n    }\r\n    struct secondTask{\r\n        string vaccineId;\r\n        string vaccineDate;\r\n        string batchNumber;\r\n        bool completed;\r\n        string dateIssue;\r\n    }\r\n    struct code{\r\n        string usercode;\r\n    }\r\n    mapping(uint=>Task) public tasks;\r\n    mapping(uint=>secondTask) public vaccinetasks;\r\n    mapping(uint=>code) public accesscode;\r\n\r\n    event userTaskCreated(\r\n        uint id,\r\n        string firstName,\r\n        string lastName,\r\n        string gender,\r\n        string birthdate,\r\n        string nic,\r\n        string home);\r\n    \r\n    event vaccineTaskCreated(\r\n        string vaccineId,\r\n        string vaccineDate,\r\n        string batchNumber,\r\n        bool completed,\r\n        string dateIssue);\r\n\r\n    event TaskCompleted(\r\n        uint id,\r\n        bool completed\r\n    ); \r\n    event storecode(\r\n        string usercode\r\n    );   \r\n\r\n    constructor()public{\r\n        createTask(\"user firstName\",\"user LastName\",\"user gender\",\"xx-xx-xxxx\",\"user NIC\",\"user address\",\"0\",\"xx-xx-xxxx\",\"batch Number\",\"xx-xx-xxxx\");\r\n    }\r\n    function createTask(string memory firstName,string memory lastName,string memory gender,string memory birthdate,string memory nic,string memory home,string memory vaccineId,string memory vaccineDate, string memory batchNumber, string memory dateIssue)public{\r\n        taskcount++;\r\n        tasks[taskcount]=Task(taskcount,firstName,lastName,gender,birthdate,nic,home);\r\n        vaccinetasks[taskcount]=secondTask(vaccineId,vaccineDate,batchNumber,false,dateIssue);\r\n        emit userTaskCreated(taskcount,firstName,lastName,gender,birthdate,nic,home);\r\n        emit vaccineTaskCreated(vaccineId,vaccineDate,batchNumber,false,dateIssue);\r\n    }\r\n\r\n    function toggleCompleted(uint _id) public {\r\n        secondTask memory _task = vaccinetasks[_id];\r\n        _task.completed = !_task.completed;\r\n        vaccinetasks[_id] = _task;\r\n        emit TaskCompleted(_id, _task.completed);\r\n    }\r\n    function setCode(string memory _code) public{\r\n        accesscode[taskcount]=code(_code);\r\n        emit storecode(_code);\r\n    }\r\n}\r\n",
  "sourcePath": "D:/SE/L5/SDGP/sdgp51-VacxPass/VacxPass-eth/contracts/Vacxpass.sol",
  "compiler": {
    "name": "solc",
    "version": "0.5.0+commit.1d4f565a.Emscripten.clang"
  },
  "schemaVersion": "3.0.1",
  "updatedAt": "2022-04-06T08:13:12.394Z",
  "devdoc": {
    "methods": {}
  },
  "userdoc": {
    "methods": {}
  }
}